:020000040800F2
:10000000C004002001010008FF140008990E000838
:10001000FD140008230A0008B518000800000000BD
:10002000000000000000000000000000F1160008C1
:100030002D0A00080000000005150008A917000897
:100040001B0100081B0100081B0100081B01000820
:100050001B0100081B0100081B0100081B01000810
:100060001B0100081B0100081B0100081B01000800
:100070001B0100081B0100081B0100081B010008F0
:100080001B0100081B0100081B0100081B010008E0
:100090001B0100081B0100081B0100081B010008D0
:1000A0001B0100081B0100081B0100081B010008C0
:1000B0001B0100084D1800081B0100081B01000867
:1000C0001B0100081B0100081B0100081B010008A0
:1000D0001B0100081B0100081B0100081B01000890
:1000E0001B0100081B0100081B010008DFF80CD0F1
:1000F00000F046FC0048004781240008C0040020AE
:100100000648804706480047FEE7FEE7FEE7FEE7B1
:10011000FEE7FEE7FEE7FEE7FEE7FEE7FD17000865
:10012000ED000008D2B201E000F8012B491EFBD21D
:1001300070470022F6E710B513460A4604461946F2
:10014000FFF7F0FF204610BDF0B480EA0102D40FA3
:100150004200B2EB410F02D20246084611464A0065
:1001600042D0C30DDDB2C1F3C752AD1A202D35DA2E
:10017000C1F3160141F4000204B15242C5F1200658
:1001800002FA06F12A411044B3EBD05F23D0C4B188
:10019000012DA0EBC35009DCF0BC4FF0004202EA95
:1001A000C352DBB200F5000000F01EBB400000F1BE
:1001B000807000EBC350A0F1807040EAD17049001C
:1001C00009E0490841EAC071A0EBC35000F5000006
:1001D000400800EBC350F0BC00F0FDBA61420122C0
:1001E00002EB4101001BF6E7F0BC704781F00041D3
:1001F000AAE780F00040A7E780EA010210B502F00C
:100200000043400022D04A001FD0010E01EB1261D2
:10021000C0F35600C2F3560240F4000042F400025C
:10022000A0FB022000047F39140400D0401C50EAD7
:10023000124001D44000491EC2B20C0604EBD0109B
:10024000401C4008802A02D003E0002010BD20F0AE
:100250000100002900DA0020184310BD30B480EA04
:10026000010202F0004530F0004221F0004013D0BE
:1002700090B1C30DD40DC2F31601C0F31600E41AF9
:1002800041F4000140F400027D34914201D3641C2A
:1002900000E04900002C02DA30BC002070474FF427
:1002A00000000023914201D3891A034340084FEA1A
:1002B0004101F7D151B1914202D14FF0004105E027
:1002C00002D24FF0010101E06FF0010103EBC450D5
:1002D000284430BC00F07FBA420005D0C0F3C752BA
:1002E0005242914201DC0020704700EBC150704740
:1002F0002DE9FE4F804681EA0300C00F0C460090B6
:1003000021F0004123F00045B8EB0200A94105D2DD
:100310004046214690461C460B46024623F00040CC
:10032000104347D0270DC7F30A00C3F30A510290C8
:10033000401A019040286BDAC3F3130040F4801B8D
:100340000098924620B10023D2EB030A63EB0B0B1B
:1003500001985946C0F14002504600F00BFA06469B
:100360000D4650465946019A00F023FA10EB08005A
:100370006141002487EA115284EAE7731A4340D0AE
:10038000009A62B3019A012A4FEA075215DC001B5A
:1003900061EB02014FF0004202EA0752CDE9004250
:1003A000001C41F5801132462B4600F05AFA03B08A
:1003B000BDE8F08F40462146F9E7001B61EB0201E2
:1003C000001C41F5801300185B412018A2F50017AE
:1003D00047EB030140EAD570B6196D4111E06D0895
:1003E0004FEA360645EAC0754FEA0752001B61EB3B
:1003F0000201001C41F5801149084FEA3000001944
:10040000514132462B4603B0BDE8F04F00F01ABA16
:100410000098012240000023D0EB020263EBE0735E
:10042000009821464FEAE074B8EB000061EB04014C
:10043000E9E783F000435BE781F0004158E72DE9ED
:10044000FE4F81EA030404F0004421F000410094CF
:100450004FF0000B23F0004350EA01045ED052EA53
:1004600003045BD0C3F30A54C1F30A552C44A4F22D
:10047000F3340194A0FB0254C1F3130141F4801141
:10048000C3F3130343F4801301FB024400FB034E48
:10049000840A970A44EA815447EA8357A4FB076811
:1004A00002958D0A05FB07854FEA932C04FB0C543B
:1004B0002705029D4FEA065847EA1637B5EB0805AF
:1004C0006EEB070C870E920E47EA811742EA831201
:1004D000A7FB0201B6EB0B0164EB00042B0D43EA12
:1004E0000C335E1844EB1C50DA465146E7FB020120
:1004F000C5F313044FEA0B3343EA14534FEA0432B3
:10050000019C43EA0603A4F10C040294009CCDE98B
:1005100000B400F0A6F903B0BDE8F08F002001465A
:10052000F9E72DE9F04D81EA030404F0004B21F0D6
:10053000004514464FF0000A23F0004150EA05023E
:1005400020D054EA01021DD0C5F30A570246C5F374
:100550001303C1F31300C1F30A5640F4801543F4AA
:100560008013A7EB0608101BD64608F2FD3873EB84
:10057000050002D308F1010801E092185B41B8F1CF
:10058000000F03DA00200146BDE8F08D00204FF493
:100590008011064684460EE0171B73EB050705D352
:1005A000121B63EB050306434CEA010C49084FEAB2
:1005B000300092185B4150EA0107EDD152EA030086
:1005C00012D082EA040083EA0501084305D0101B1B
:1005D000AB4106D20122002306E000224FF0004387
:1005E00002E06FF0010253101AEB06004CEB0851C9
:1005F00010EB0A0041EB0B01BDE8F04D00F022B911
:10060000C10F80EAE0700844CA079623002100F079
:10061000EBB896230022114600F0E6B80EB540F282
:10062000334102910021CDE900110A460B4600F04A
:1006300018F903B000BD00F0004220F00040C10DE9
:10064000C0F3160040F400007F2901DA0020704753
:10065000962903DCC1F19601C84001E09639884033
:10066000002AF4D04042704720F00040C10DC0F392
:10067000160040F400007F2901DA00207047962917
:1006800003DCC1F19601C840704796398840704735
:10069000C1F30A5210B5C1F3130140F2FF3341F424
:1006A00080119A4201DA002010BD40F233439A4291
:1006B000A2F2334203DC524200F06BF810BD9040CE
:1006C00010BD00F0004230F000400AD0C10D01F52D
:1006D0006071C0F3160042EA0151C208400711439D
:1006E000704700200146704701F0004330B421F00C
:1006F000004150EA010206D00A0DA2F56072C1F372
:100700001301002A02DC30BC00207047440F44EA89
:10071000C104C100E01830BC00EBC25000F05BB86F
:10072000002801DBC0F10040002901DBC1F10041DC
:1007300081427047002801DBC0F10040002901DB45
:10074000C1F100418842704730B50B460146002098
:100750002022012409E021FA02F59D4205D303FA83
:1007600002F5491B04FA02F52844151EA2F1010204
:10077000F1DC30BD202A04DB203A00FA02F100202F
:1007800070479140C2F1200320FA03F319439040CF
:100790007047202A04DB203A21FA02F0002170473A
:1007A00021FA02F3D040C2F12002914008431946D9
:1007B0007047202A06DBCB17203A41FA02F043EAC1
:1007C000E07306E041FA02F3D040C2F1200291400A
:1007D0000843194670470029A8BF7047401C4900CC
:1007E00008BF20F00100704710B4B0FA80FC00FA96
:1007F0000CF050EA010404BF10BC704749B1CCF1C1
:10080000200421FA04F411FA0CF118BF012121434C
:100810000843A3EB0C01CB1D4FEA00614FEA102007
:1008200042BF002010BC704700EBC35010440029A9
:10083000A4BF10BC7047401C490008BF20F0010055
:1008400010BC704710B5141E73F1000408DA401C88
:1008500041F1000192185B411A4301D120F00100DF
:1008600010BD2DE9F04D92469B4611B1B1FA81F2CF
:1008700002E0B0FA80F220329046FFF77BFF044698
:100880000F4640EA0A0041EA0B0153465A46084324
:1008900013D0114653EA010019D0C8F14002504666
:1008A000FFF777FF05460E46504659464246FFF78A
:1008B00061FF084305D0012004E020463946BDE829
:1008C000F08D0020054346EAE0762C4337430A9832
:1008D0006305E40AA0EB08000022FD0A44EA47543D
:1008E0000A3002D500200146E9E7010510196941E7
:1008F000DDE9084500196941BDE8F04DA2E770B592
:1009000021F0004303430CD0C1F30A550024D5EB7A
:10091000040564EB0403D617AD1AB34102DB0020D3
:10092000014670BD201841EB025170BD0EB5C10FDC
:1009300080EAE0700844CA07002140F233438DE8A2
:100940000E000A460B46FFF78CFF03B000BD000007
:1009500030B5041E71F1000404DB4FF00044404246
:1009600064EB0101141E73F1000405DB1C464FF01B
:100970000043524263EB04038B4208BF824230BD06
:10098000064C074D06E0E06840F0010394E80700DC
:1009900098471034AC42F6D3FFF7ACFBD0310008D7
:1009A000F0310008044800210170044A426081606F
:1009B000C1600161704700002C0000200000A041D0
:1009C00070B506460C46154600F01EFBAE2000F042
:1009D000F3FA00F04FFB18B100F030FB012070BDBE
:1009E000304600F0E9FA00F045FB00F00DFBAF20C7
:1009F00000F0E2FA00F03EFB08E0012D0CD00120EF
:100A000000F0AAFA20706D1EEDB2641C002DF4D126
:100A100000F014FB002070BD002000F09DFA207053
:100A2000F1E7FEE70860002010607047704700BFE4
:100A300000BF00BF00BF00BF00BF00BF00BF00BFBE
:100A400000BF00BF00BF00BF00BF00BF00BF00BFAE
:100A500000BF00BF00BF00BF00BF00BF00BF00BF9E
:100A600000BF00BF00BF00BF00BF00BF00BF00BF8E
:100A700000BF00BF00BF00BF00BF00BF00BF00BF7E
:100A800000BF00BF00BF00BF00BF00BF00BF00BF6E
:100A900000BF00BF00BF00BF00BF00BF00BF00BF5E
:100AA00000BF00BF00BF00BF00BF00BF00BF00BF4E
:100AB00000BF00BF00BF00BF00BF00BF00BF704746
:100AC00000B54FF47A71484301E0FFF7B0FF401ED4
:100AD000411CFAD100BD00002DE9F0418046104EC6
:100AE000776837603846FFF7ECFD0E4A0E4BFFF78C
:100AF000A6FC04460D464046FFF7E3FD0B4A0C4BAF
:100B0000FFF79DFC22462B46FFF7F2FBFFF7ECFDBB
:100B1000706001463846BDE8F041FFF715BB0000A4
:100B2000400000205CDDC150084EE03F48457C5E3F
:100B3000EF63CF3F2DE9F0410022CC7804F00F03A2
:100B4000E40601D58C7823430C784FF00F0714F09E
:100B5000FF0F4FF0010C1CD005680CFA02F40E8850
:100B60002640A64211D1960007FA06F825EA0805A4
:100B700003FA06F848EA0505CE78282E02D0482E5A
:100B800002D002E0446100E00461521C082AE4D370
:100B900005600A88FF2A1ED94568002202F108066E
:100BA0000CFA06F40E882640A64210D1960007FAE9
:100BB00006F825EA080503FA06F848EA0505CE789E
:100BC000282E00D14461CE78482E00D10461521CF9
:100BD000082AE3D34560BDE8F08101617047000059
:100BE00030B5FF201E4C21684FF00002CD061D4994
:100BF0000B7802D45B1C0B7005E00A2B02D3042097
:100C00000A7000E00A7023681D07164BDB7802D4D7
:100C10005B1CCB7005E00A2B02D30320CA7000E0F6
:100C2000CA7023689C060F4B9B7802D45B1C8B70A8
:100C300005E00A2B02D305208A7000E08A700A4B77
:100C40001B68DC07074B5B7804D00A2B05D3022016
:100C50004A7030BD5B1C4B7030BD4A7030BD000027
:100C6000080C014024000020080801402DE9FF4F36
:100C70000446DDF834800F4693469A4600949AE085
:100C8000802837D20D2805D0202807D920381FFA10
:100C900080F905E0009C1037BFB228E04FF0000952
:100CA0000026002506EB0910039046490398095CCD
:100CB0008020E840014207D0B81981B2601980B2A3
:100CC0005A4600F0DCF808E0D34506D0B81981B2E6
:100CD000601980B2524600F0D2F86D1CEDB2082DBA
:100CE000E3D3761CF6B2102EDBD30834A4B208F19D
:100CF000010860E04FF00009334909EB091098F84A
:100D0000003011F810209A424AD101EB40000290C5
:100D1000407898F80110884242D1002500260298B8
:100D200000EB45000190019881788020F04001425D
:100D300007D0781981B2A01980B25A4600F09FF806
:100D400008E0D34506D0781981B2A01980B2524686
:100D500000F095F8761CF6B2082EE4D30026019830
:100D6000C1788020F040014208D0781981B2A019E2
:100D7000083080B25A4600F082F809E0D34507D027
:100D8000781981B2A019083080B2524600F077F885
:100D9000761CF6B2082EE2D36D1CEDB2102DBDD339
:100DA00009F101091FFA89F9B9F1640FA4D308F117
:100DB00002081034A4B298F8000000287FF460AF55
:100DC000BDE8FF8FCE280008BF2E00082DE9F84FA0
:100DD00006460F46144698463946304600F04CFB0E
:100DE000A51BA8EB070B4FF0FF39002D02DB4FF0DE
:100DF000010801E0C8466D42BBF1000F02DB4FF075
:100E0000010901E0CBF1000B680000904FEA4B0AAA
:100E10005D451ADDAAEB05044FF0000B11E03946E1
:100E200030460A9A00F02BF8002C04DB0098241AB4
:100E300007EB090087B2544406EB080086B20BF1B9
:100E4000010BAB45EBDDBDE8F88F0098A0EB0B0480
:100E5000002511E0394630460A9A00F010F8002CBF
:100E600004DBA4EB0A0406EB080086B200980444F5
:100E700007EB090087B26D1C5D45EBDDE3E710B5BC
:100E800014464A1C93B2421C92B200F0C9FA2046A2
:100E9000BDE8104000F068B9FEE7000000B50A4A5E
:100EA000002313600948016821F0F0010160016826
:100EB00041F030010160536000F00AF80120106039
:100EC00000F006F8136000BDA0812142040C01402F
:100ED0005A2000E000BF401EC0B2FBD270470000A5
:100EE00038B50121082000F01DFB4FF44074ADF827
:100EF000004003208DF8020010208DF80300074DFC
:100F000069462846FFF716FE21462846FFF765FE8C
:100F1000034801210160416038BD0000000C014020
:100F2000A081214210B50A4A0023136009480168D4
:100F300021F0F0010160016841F0300101600124FD
:100F40005460FFF7C5FF1460FFF7C2FF136010BDC8
:100F5000A0812142040C0140F0B50746002414484A
:100F6000016821F0F0010160016841F04001016079
:100F7000002200250F4B0126C3F8A051FFF7A8FF60
:100F8000C3F8A0616006040ED3F8240108B1641C04
:100F9000E4B2FFF79DFF521CD2B2082AECD31FB176
:100FA000FFF77CFF2046F0BDFFF7BCFFFAE700002B
:100FB000040C01400080214270B5034610480168CE
:100FC00021F0F0010160016841F0300101600D4C39
:100FD0000025C4F8A05100220126D809C4F8A401B4
:100FE0005806030EC4F8A061FFF772FFC4F8A051C1
:100FF000FFF76EFF521CD2B2082AEED370BD00007C
:10100000040C01400080214200B50A48016821F02B
:10101000F0010160016841F030010160064A0120E1
:1010200050601060FFF754FF00235360FFF750FF3C
:10103000136000BD040C0140A081214200B50B48A3
:10104000016821F0F0010160016841F030010160A8
:10105000074A002010605060FFF73AFF012010603F
:1010600050605DF804EBFFF733BF0000040C014053
:10107000A081214210B500221148016821F0F00141
:101080000160016841F0400101600E4B0124C3F88A
:10109000A441FFF71DFFC3F8A041FFF719FF07E0C8
:1010A000521CD2B2FA2A03D9FFF7C8FF012010BDA3
:1010B000D3F824010028F3D1C3F8A00110BD00002B
:1010C000040C0140008021421048816941F00D016B
:1010D00081610F48416821F0E0614160416841F061
:1010E000806141600B4801680B4A11400160016852
:1010F0000A4A114301600A48016821F00F010160AA
:10110000016841F0040101607047000000100240D6
:1011100000000140000C0140FF0F00FF00404400B0
:101120000008014038B501210C2000F0FBF9BC207B
:10113000ADF8000003258DF8025010248DF803400F
:1011400069460748FFF7F6FC0220ADF800008DF86D
:1011500002508DF8034069460248FFF7EBFC38BDAA
:1011600000080140000C014030B504460748022544
:101170000560074910200860200A00F005FAE0B277
:1011800000F002FA0148001F056030BD140C014058
:101190001008014070B5064600219F237F220846B3
:1011A00000F03EF92C2000F07DF9002500243046A7
:1011B000FFF7DAFF641CA02CF9D36D1C802DF5D34A
:1011C00070BD000010B5FFF7ADFF00F017F911205A
:1011D00000F068F97820FFF773FCB12000F062F9A5
:1011E000012000F04DF92C2000F04AF92D2000F0EC
:1011F00047F9B22000F056F9012000F041F92C2007
:1012000000F03EF92D2000F03BF9B32000F04AF940
:10121000012000F035F92C2000F032F92D2000F0EB
:101220002FF9012000F02CF92C2000F029F92D20B5
:1012300000F026F9B42000F035F9072000F020F97D
:10124000C02000F02FF9A22000F01AF9022000F0CF
:1012500017F9842000F014F9C12000F023F9C5200B
:1012600000F00EF9C22000F01DF90A2000F008F984
:10127000002000F005F9C32000F014F98A2000F0E6
:10128000FFF82A2000F0FCF8C42000F00BF98A20B7
:1012900000F0F6F8EE2000F0F3F8C52000F002F9B7
:1012A0000E2000F0EDF8362000F0FCF8C02000F031
:1012B000E7F8E02000F0F6F80F2000F0E1F81A203F
:1012C00000F0DEF80F2000F0DBF8182000F0D8F86E
:1012D0002F2000F0D5F8282000F0D2F8202000F0D0
:1012E000CFF8222000F0CCF81F2000F0C9F81B2016
:1012F00000F0C6F8232000F0C3F8372000F0C0F853
:10130000002000F0BDF8072000F0BAF8022000F03D
:10131000B7F8102000F0B4F8E12000F0C3F80F2077
:1013200000F0AEF81B2000F0ABF80F2000F0A8F89A
:10133000172000F0A5F8332000F0A2F82C2000F0D0
:101340009FF8292000F09CF82E2000F099F830201A
:1013500000F096F8302000F093F8392000F090F873
:101360003F2000F08DF8002000F08AF8072000F000
:1013700087F8032000F084F8102000F081F82A207C
:1013800000F090F8002000F07BF8002000F078F8E2
:10139000002000F075F87F2000F072F82B2000F09C
:1013A00081F8002000F06CF8002000F069F80020BF
:1013B00000F066F89F2000F063F8F02000F072F86B
:1013C000012000F05DF8F62000F06CF8002000F03D
:1013D00057F83A2000F066F8052000F051F829206F
:1013E00000F060F8044904200860BDE810404FF6A2
:1013F000FF70FFF7CFBE00001008014010B507488E
:10140000082404606420FFF75BFB0448001F0460AD
:10141000BDE810403220FFF753BB00001408014024
:10142000F0B505460F4614461E462A2000F03AF84D
:10143000002000F025F8AD1CE8B200F021F80020F3
:1014400000F01EF8A41CE0B200F01AF82B2000F007
:1014500029F8002000F014F87F1CF8B200F010F812
:10146000002000F00DF8761CF0B200F009F8BDE89D
:10147000F0402C2000F016B80B460246FFF7D0BF14
:1014800010B5064902240C60054A1021116000F0D5
:101490007BF80248001F046010BD0000140C0140DE
:1014A0001008014010B5064902240C60054A1021BD
:1014B000116000F069F80248001F046010BD0000D0
:1014C000140C0140140801400A48816941F00801E8
:1014D00081610948016821F070610160016841F093
:1014E0004071016004480C30016841F04001016026
:1014F0007047000000100240000C0140FEE77047FA
:1015000000F046BD704700000548002101710161EF
:1015100041618161C161016208228271C1607047CD
:1015200048000020054A002903D0916901439161D8
:10153000704791698143916170470000001002403B
:1015400010B50446FFF760FDAE20FFF735FDFFF74D
:1015500091FD68B92046FFF72FFDFFF78BFD38B9E5
:10156000FFF752FDAF20FFF727FDFFF783FD18B10E
:10157000FFF764FD002010BD0020FFF7EDFC0446DE
:10158000FFF75CFD204610BD70B50821084C802592
:10159000231D2022060601D5256000E01D601A608B
:1015A00022604006000E491EC9B20029F2D170BD6A
:1015B0001008014010B5FFF793FCFF20FFF7C0FFB4
:1015C000194C607011282DD16420FFF779FA082199
:1015D000062000F0CBF91620FFF7B2FFA07017200D
:1015E000FFF7AEFFE0704FF49670FFF769FA032043
:1015F00001F03FF9032001F02FF9012001F044F937
:101600000721084601F022F9012001F00BF9FFF74C
:10161000C9F904F10C0001F031F9BDE810400320D4
:1016200000F00CBC10BD0000480000202DE9F04186
:101630000C4617460146FEF7DFFD294E7168FEF79E
:1016400083FD0546706021462046FEF7D5FDB16852
:10165000FEF77AFDB060F068401CF060002F3CD0CF
:101660003178491CC9B23170032936D1FEF7D1FF58
:1016700001462846FEF7F2FDFFF723F800F052FD81
:1016800004460D46F068FEF7C4FF0146B068FEF759
:10169000E5FDFFF716F800F045FD0022114BFEF7BF
:1016A000CEFE22462B46FEF73CFFFFF71DF8002238
:1016B0000D49884204DDFEF7D7FF4238C2B206E08A
:1016C0000A49884203DDFEF7CFFF3238C2B201F08B
:1016D0009FF803481030805C7070BDE8F081000016
:1016E0007C00002000005940000084420000484275
:1016F000704700F001B800000CB500220192009282
:101700002748016841F4803101604FF4A06301680B
:1017100001F4003100910199491C0191009911B91E
:1017200001999942F3D10168890302D50121009101
:1017300000E000920099012930D11A490A6842F06C
:1017400010020A600A6822F003020A600A6842F086
:1017500002020A604168416041684160416841F4A9
:1017600080614160416821F47C114160416841F42D
:10177000E8114160016841F08071016001688901F0
:10178000FCD5416821F003014160416841F002014C
:1017900041604168C1F381010229FAD10CBD00000A
:1017A00000100240002002400A480168491C016004
:1017B000001D0168491C016008300168491C016076
:1017C00008300168491C016008300168491C01604B
:1017D00070470000000000204FF0E0210A6942F04D
:1017E00004020A610A6942F002020A61401E48616D
:1017F000086940F0010008617047000010B50F480B
:10180000016841F00101016041680D4A11404160E9
:1018100001680C4A11400160016821F480210160D7
:10182000416821F4FE0141604FF41F018160FFF720
:1018300060FF05494FF00060086010BD00100240D5
:101840000000FFF8FFFFF6FE08ED00E00348018806
:1018500021F001010180FFF753BE00001004004099
:1018600030B5114AD36943F00203D3610F4A002314
:101870001380148844F0800414800C4C0C342588A8
:1018800045F001052580094C24342380401E231D8A
:101890001880181D0180108840F001001080044954
:1018A000D004086030BD0000001002400004004079
:1018B00000E100E0FEE7000070B5044622488269BE
:1018C00044F204031A4382612048026822F47F62D2
:1018D0000260026842F0B0020260026842F4806274
:1018E00002600801FEF795FE05462046FEF791FED0
:1018F0001749FEF781FC2946FEF7B0FC054628464D
:10190000FEF7B2FE84B22046FEF783FE2946FEF7BC
:1019100070FC0421FEF7E0FCFEF7A6FE0D4940EA4C
:10192000041008800B480021001D0180018841F04F
:101930000C010180011D0A8822F440520A800188AE
:1019400041F40051018070BD0010024004080140C4
:10195000002474490838014003490A885206FCD51E
:101960000149091D088070470038014070B50546DF
:101970000C46FFF749FBAE20FFF71EFBFFF77AFB93
:1019800058B92846FFF718FBFFF774FB28B9204623
:10199000FFF712FBFFF76EFB18B1FFF74FFB0020BC
:1019A00070BDFFF74BFB012070BD00000FB4054B6D
:1019B00010B503A9044A029800F098F810BC5DF82D
:1019C00014FB0000D5200008B80000200FB4084B1D
:1019D00010B504A902AA039800F088F8044602A9E9
:1019E000002000F024FA204610BC5DF814FB000033
:1019F0002F1E00082DE9F0414F1E00EBC7010446E1
:101A0000D1E9000115461E4637F006020DD02A46E0
:101A10003346FEF714FD7F1E04EBC703D3E9002312
:101A2000FEF766FC37F00602F1D1022F25D0042F15
:101A300013D0062F18BFBDE8F0812A463346FEF7C3
:101A4000FEFCD4E90A23FEF753FC2A463346FEF790
:101A5000F6FCD4E90823FEF74BFC2A463346FEF792
:101A6000EEFCD4E90623FEF743FC2A463346FEF794
:101A7000E6FCD4E90423FEF73BFC2A463346FEF796
:101A8000DEFCD4E90223FEF733FC2A463346FEF798
:101A9000D6FCD4E90023BDE8F041FEF729BC0000E4
:101AA0000022134610460149FEF73BBD0000F03FFF
:101AB0000122FEF724BF0022134610461146FEF70E
:101AC00030BD02E008C8121F08C1002AFAD17047D1
:101AD0007047002001E001C1121F002AFBD17047AE
:101AE0000149086070470000BC0000202DE9FF4F4D
:101AF0008BB088460546002606E025280BD0DDE998
:101B00000D1290476D1C761C28780028F5D10FB077
:101B10003046BDE8F08F0024A146A2460122AE491E
:101B200000E0044315F8013F203B02FA03F00842AD
:101B3000F7D128782A2810D06FF02F022878A0F14A
:101B40003001092915D809EB890102EB410144F064
:101B5000020400EB01096D1CF0E758F8041B5FEA72
:101B6000010903D544F40054C9F1000944F002040A
:101B70006D1C28782E2817D115F8010F44F00404A5
:101B80002A280ED06FF02F022878A0F13001092901
:101B90000AD80AEB8A0102EB410100EB010A6D1C35
:101BA000F2E758F804AB6D1C28786C280FD006DCDF
:101BB0004C2817D068280DD06A2814D104E0742866
:101BC00010D07A280FD10DE044F400140AE044F458
:101BD000801401E044F440146978814202D104F594
:101BE00080146D1C6D1C2878692865D006DC0028DF
:101BF0008DD0632827D0642806D15DE06E2808D0F8
:101C000073282AD0752877D0DDE90D129047761C0D
:101C1000E0E0C4F30250022809D003280DD0D8F820
:101C2000001004280DD00E6008F10408D2E0D8F8A6
:101C30000010F217C1E90062F6E7D8F800100E8034
:101C4000F2E70E70F0E718F8041B8DF80010002082
:101C50008DF80100EB46012003E058F804BB4FF07B
:101C6000FF3061074FF0000701D40AE07F1C5745A1
:101C70000DDA8742FADB1BF807100029F6D106E0DF
:101C80007F1C8742FCDB1BF807100029F8D1DDE937
:101C90000D23A9EB07008146214600F0B1F830443E
:101CA000C61904E0DDE90D121BF8010B90477F1EF9
:101CB000F8D22146484688E058F8040BC4F3025194
:101CC0004FF00A0B032900D100B2042900D140B221
:101CD000002802DA40422D2102E0210505D52B2102
:101CE0008DF82410012104E006E0E10710D0202146
:101CF000F6E708AF089113E058F8040BC4F302515B
:101D00004FF00A0B032900D180B2042900D1C0B2E0
:101D10000021EEE75946FEF717FD303107F8011DA7
:101D20000028F7D1ADEB070000F1200B600702D5CA
:101D300024F4803401E04FF0010ADA4502DDAAEB19
:101D40000B0000E00020824600EB0B0108980144E4
:101D5000A9EB01000A90E00306D4DDE90D2321463A
:101D60000A9800F04DF806444FF0000908E009A970
:101D700011F80900DDE90D12904709F10109761CFF
:101D800008998945F3DBE0030CD5DDE90D232146F5
:101D90000A9800F035F8064404E0DDE90D12302021
:101DA0009047761CBAF10001AAF1010AF5DC05E0C2
:101DB000DDE90D1217F8010B9047761CBBF100010D
:101DC000ABF1010BF4DC0A982146DDE90D2300F0AC
:101DD00005F806446D1C97E6092801002DE9F0413D
:101DE000044600251E461746880404D405E03946FB
:101DF0002020B0476D1C641EF9D52846BDE8F0814F
:101E00002DE9F041044600251E469046C80301D541
:101E1000302700E02027880404D505E041463846F5
:101E2000B0476D1C641EF9D52846BDE8F0810A68EC
:101E3000531C0B601070704700F01AB870B50A4C54
:101E40006071FFF761FB094D04F12802111F28465C
:101E5000FEF7E8FD04F13002111F2846FEF7E2FD0F
:101E60000120207170BD0000480000203333733F13
:101E70002DE9F04704460027404E02250121307825
:101E80004FF4FA694FF44878052874D2DFE800F07F
:101E9000030924366A0000F097FC48456BD931707D
:101EA00069E020467168FEF745FC09D22046FEF73E
:101EB000C2FB414600F08EFCFEF7A2FB706035705D
:101EC00000F082FC3169401A484502D90020B06018
:101ED000F06000F0B5F84EE020467168FEF720FC97
:101EE00002D20320307046E02046FEF7A4FB4146B4
:101EF00000F070FCFEF784FB70603CE02049204657
:101F0000FEF722F97168FEF70BFC29D20127F46075
:101F10000420307000F058FC3169401AFEF779FB5C
:101F2000804618F0FF4F17D0B068FEF7CAFB154A7D
:101F3000154BFEF784FA04460D464046FEF7C1FBFA
:101F40004FF03332114BFEF77AFA22462B46FEF75A
:101F5000CFF9FEF7C9FBB06000F036FC30610AE053
:101F6000357008E000F030FC3269801AC82800D9CA
:101F7000317000F065F83846BDE8F0872C0000208D
:101F80000000F0419A9999999999D93F3333E33FE9
:101F90002DE9F04100F018FC264CA169401A0A28EE
:101FA00045D900F011FCA06100F08FFC22480088A8
:101FB000FEF72FFB04F12802111F00F074FC054608
:101FC0001E480088FEF725FB04F13002111F00F0C7
:101FD0006AFC064685F00040FEF77EFDFFF72CFF09
:101FE000074600F07FF8B0F5000F0FDB02202071EC
:101FF0003A4631462846FFF719FB00F073F8FEF722
:102000001AFB208100F088F8207006E02079022871
:1020100003D10120207100F0FBFB002F07D0E06806
:1020200010F0FF4F03D0BDE8F04100F0D7BBBDE892
:10203000F081000048000020280000202A00002035
:102040002DE9F0471D4E4FF400043046D6F80C90B1
:102050004068FEF736FB88460746A1451DDBB068A1
:10206000A0421ADB1649FEF7F9F8FEF72AFB0446F0
:102070000D464846FEF725FB4FF06632114BFEF742
:10208000DEF922462B46FEF74CFA3A464346FEF767
:10209000D3F9FEF729FB706008E0384641460A4A4A
:1020A0000A4BFEF7CCF9FEF71FFB70600848716819
:1020B000814200DA7060BDE8F08700002C0000204B
:1020C000000020416666E63FAE47E17A14AEEF3F7E
:1020D0000000A04100B50346D8B2FFF73DFC18460A
:1020E00000BD000010B50948816811F0FF4F0BD00A
:1020F0004FF07E50FEF7B2F80549FEF77DF8BDE8D7
:1021000010400449FEF778B8002010BD2C000020D4
:1021100000007A4400007042014840787047000097
:102120007C0000202DE9F04DC84A002490B0914277
:1021300005DA21F00043934201D805D120B110B057
:10214000BDE8F04DFFF7B4BCB1F5801F1BDA53EAD0
:10215000000209D0002911DA0120FFF7C1FC10B0FC
:10216000BDE8F04DFFF7A7BC0220FFF7B9FCFFF771
:1021700097FC10B081F00041BDE8F08D6FF03504A0
:102180003622FEF7BCFB04EB2152C1F31308B04921
:10219000A2F2FF33414401F4801282F07F6103EB2D
:1021A000225281F04051009241EA08010022A94BDD
:1021B000FEF73FF9044608F10200A74EC0F31300F2
:1021C0000D467E44032867D2D6E900232046FEF759
:1021D000BFFB1ED10098002802BFD6E9000110B055
:1021E000BDE8F08DFEF7A2FB07460C469B4A9C4BD0
:1021F000FEF725F906460D469A4A9B4B384621467E
:10220000FEF71DF910B032462B46BDE8F04DFEF743
:102210006FB84FF05532954B20462946FEF70FF91F
:102220000022934BFEF708F906460F4622462B463E
:1022300010461946FEF703F932463B46FEF7FFF813
:10224000064600980F46F0B1FEF770FB80468A46BE
:10225000824A834BFEF7F3F832463B46FEF7ECF832
:1022600022462B46FEF7E5F805460C467D4A7E4B96
:1022700040465146FEF7E3F810B02A462346BDE833
:10228000F04DFEF7D6B80B4610B032462046294630
:10229000BDE8F04DFEF7CDB800224FF08043204658
:1022A000FEF726F802460B4620462946FEF739F986
:1022B00006460F460098FEF739FBCDE90401324689
:1022C0003B4610463946FEF7BAF80C9069480C9A1E
:1022D0004044019009910B461046FEF7B0F8824643
:1022E000024665488B46C8F151080B4608F5D728C9
:1022F00003217844FFF77EFB52465B46FEF79FF8CA
:102300000A905E480D9152465B4604217844FFF7DF
:1023100071FB099B0C9AFEF792F8844601980D9B7D
:1023200040EA080860460A9AFDF7E2FF83460891F2
:10233000B8F1000F4EDD4FF0FF3220462946FEF780
:10234000DEFA22462B46FEF77AF8804600988A4647
:1023500060B3DDE90401414A414BFEF770F8099191
:1023600000905A4640465146089BFDF7C1FF324651
:102370003B46FEF764F8099B009AFDF7B9FF424619
:102380005346FEF759F822462B46FEF752F804460C
:102390000D46DDE90401334A334BFEF750F810B027
:1023A00022462B46BDE8F04DFEF743B85A4640465C
:1023B000089BFDF79DFF32463B46FEF740F842463C
:1023C0005346FEF739F810B022462B46BDE8F04DD3
:1023D000FEF732B8009840B3DDE904011F4A204BF4
:1023E000FEF72DF880468A465A4620462946089B25
:1023F000FEF71FF832463B46FEF721F842465346A9
:10240000FEF717F822462B46FEF713F804460D4652
:10241000DDE90401134A144BFEF711F810B022460F
:102420002B46BDE8F04DFEF704B80B465A46204651
:102430002946FDF7FEFF32463B46FEF700F810B096
:1024400022462B46BDE8F04DFDF7F6BF0000F07FB9
:10245000645F09000000F03F02100000763C79350F
:10246000EF39EA3D0000E0FE422EE63F5555D53FEC
:102470000000E03F86EBF9FF9A0E0000980E000086
:102480008AB00824002600200690079008901421A6
:1024900001A8FDF74EFEFFF717F8FEF715FEAA4854
:1024A000FFF79AF9FFF786F84FF4E13739464820ED
:1024B000FFF702FA39464820FFF7D2F9FEF782FE0D
:1024C000A2A04FF6FF774FF4784800903B46424673
:1024D00005210020FEF7CAFBA0A000903B46424623
:1024E0001E210020FEF7C2FBA04FA14801684268F0
:1024F0009142FAD94FF00008C0F8008006A8B7F85A
:10250000009000F80690761CF0B20A21B0FBF1F2C0
:1025100001FB12069DF818009DF819109DF81A206D
:1025200001449DF81B00104408449DF81C10084409
:102530009DF81D1008449DF81E1008449DF81F10BA
:1025400008449DF8201008449DF821100844FEF727
:1025500060F882464846FEF75CF85146FEF7E0F820
:1025600009D23888FEF755F85146FDF742FEFEF7CE
:102570007BF8C0B208E03888FEF74BF85146FDF70B
:1025800035FEFEF771F8C0B2FEF748F84FF066323C
:10259000784BFDF754FF0022774BFDF7A9FEFEF7BD
:1025A00077F800F0FF0BFEF71BFB022804D003288E
:1025B00008D0042811D10BE000254FF6FF70FEF77C
:1025C000E9FD0AE001254FF6FF70FEF7E3FD04E0A8
:1025D00002254FF6FF70FEF7DDFD6848016842688E
:1025E000914271D9002D6FD1C0F8008064A04FF6E0
:1025F000FF7A4FF47849009053464A468E211E20B8
:10260000FEF734FB3A8861A101A8FFF7DFF901A8C2
:10261000009053464A4605210A20FEF727FB8C23EB
:10262000782219460820CDF80080FEF7CFFB08225B
:1026300014238C211046CDF80080FEF7C7FB782CC0
:1026400003D2201D00F0FF0902E008244FF00C091E
:1026500009F1030214238C211046CDF800A0FEF7E7
:10266000B5FB09F1020214238C211046CDF800A01D
:10267000FEF7ACFB09F1010214238C211046CDF8C2
:1026800000A0FEF7A3FB14234A468C214846CDF850
:1026900000A0FEF79BFBCBF18C00FDF7B1FF83465A
:1026A0005846FDF7E1FF1FFA80FA0998FDF7DCFFB5
:1026B00081B253464A462046CDF80080FEF786FB9D
:1026C000241DE4B2CDF824B0334801684268914239
:1026D0007FF60BAF012D7FF408AFC0F800802F48C4
:1026E0002FA1B0F9002001A8FFF770F90DF104083F
:1026F0004FF6FF794FF4784A4B4652461E210A2086
:10270000CDF80080FEF7B2FA29482AA1027801A884
:10271000FFF75CF94B4652463C210A20CDF8008079
:10272000FEF7A4FA3A8819A101A8FFF74FF94B4622
:1027300052465A210A20CDF80080FEF797FA3988D0
:102740001FA0FFF733F9D0E640190100533220D023
:10275000C4C2CAB2A8D0CECDBC200000533320D012
:10276000C4C2CAD1AAD1F5D6B520000028000020E5
:102770000C0000206666D63F0000E03F14000020F9
:10278000D0C4C2CAB2A8D0CECDBC200049525F414D
:10279000442C2530356400001C000020500000202F
:1027A000D0C4C2CA2C2530336462706D00000000B2
:1027B00048000020D1AAD1F52C253033642525000E
:1027C00025640D0A00000000014800687047000001
:1027D00000000020884200DD084670477047000076
:1027E00008B5042269460520FEF7EAF89DF80100C5
:1027F0009DF8001040EA0121044801809DF8031073
:102800009DF8022041EA0221418008BD28000020F5
:1028100003480021C16081604160017041707047D0
:102820007C00002010B504460720FEF789FE34B175
:1028300040F04001BDE810400720FFF797B820F0B6
:102840004001BDE810400720FFF790B840EA0110B2
:10285000C1B20920FFF78AB810B504460720FEF779
:102860006FFE00F0FC012143BDE810400720FFF798
:102870007DB801460620FFF779B8000001490068DD
:10288000C86070474800002010B504460720FEF7D6
:1028900057FE00F0E30040EA8400C1B2BDE81040FA
:1028A0000720FFF763B870B506460846144621684E
:1028B0000D460068FDF7A0FC3146FDF745FC2060A1
:1028C0002946BDE87040FDF791BCFFF789BF0000C5
:1028D00000000000000000000000000000000010E8
:1028E0001010101010101010000010100000000048
:1028F0006C6C242400000000010000000000002493
:10290000242424FE48484848FC90909090000010F1
:102910003C549290503814121292547810000000D7
:10292000225C94A8481010242A5254880000000009
:1029300030484850206E54948C888A7400000000FF
:102940003030101000000000000000000000000403
:1029500008101020202020202010100804000080E3
:102960004020201010101010102020408000000087
:10297000000010543810385410000000000000000F
:102980000010101010FE10101010000000000000C9
:1029900000000000000000000000101020000000F7
:1029A0000000000000FE0000000000000000000029
:1029B00000000000000000000000101000000000F7
:1029C000040408081010202040408080000000000F
:1029D00038448282828282828282443800000000EF
:1029E00010701010101010101010107C000000005B
:1029F0003844828204081020408284FC00000000D9
:102A00003844820204380402028244380000000084
:102A1000040C141424244444FE04040E000000009A
:102A2000FC808080B8C482020282847800000000AA
:102A30003C428280B8C48282828244380000000016
:102A40007E428204040808081010101000000000E4
:102A50003844828244384482828244380000000034
:102A6000384482828282463A028244380000000062
:102A70000000101000000000101000000000000016
:102A800000001010000000000010102000000000E6
:102A900000000618608060180600000000000000BA
:102AA00000000000FE0000FE00000000000000002A
:102AB0000000C0300C020C30C000000000000038E4
:102AC0004482820204081010100010100000000060
:102AD0003844829AAAAAAAAAAA9680423C00000078
:102AE00010101028282844447C4444EE00000000C4
:102AF000FC424242427C4242424242FC0000000010
:102B00003C448280808080808282443800000000C3
:102B1000F844424242424242424244F8000000002D
:102B2000FC444240447C4440404244FC00000000DD
:102B3000FC444240447C4440404040F000000000DF
:102B4000344C828080808E8484844C340000000069
:102B5000EE444444447C4444444444EE00000000B9
:102B60007C101010101010101010107C00000000CD
:102B70003E08080808080808088888700000000057
:102B8000EE44484850605048484444EE000000007D
:102B9000E040404040404040404244FC00000000D3
:102BA000C6446C6C6C545454444444EE0000000021
:102BB000CE4464646454544C4C4C44E40000000023
:102BC00038448282828282828282443800000000FD
:102BD000F844424242447840404040E00000000057
:102BE000384482828282828282BA443C020000009F
:102BF000F048444444487048444444E6000000001F
:102C00003C44828040300C02028244780000000084
:102C10007C5492101010101010101038000000009A
:102C2000EE444444444444444444443800000000D6
:102C3000EE444444442828282810101000000000C6
:102C4000EE445454545454542828282800000000BA
:102C5000EE44442828101028284444EE00000000C8
:102C6000EE444428282810101010103800000000EE
:102C70007E44840808102020408284FC0000001C50
:102C80001010101010101010101010101C00000068
:102C9000EE445454FE545454282828280000007050
:102CA00010101010101010101010101070000030C4
:102CB0004884000000000000000000000000000048
:102CC000000000000000000000000000FE000040C6
:102CD00020000000000000000000000000000000D4
:102CE000000000007884047C84848C76000000005E
:102CF000C0404040586442424242645800000000D4
:102D000000000000384480808080443800000000CB
:102D10000C040404344C848484844C360000000089
:102D200000000000788484FC80808478000000002B
:102D300018242020F82020202020207000000000EF
:102D4000000000003A444478807C82827C000000CD
:102D5000C040404058644444444444EE00000000F5
:102D6000101000003010101010101038000000007B
:102D700010100000301010101010109060000000B3
:102D8000C04040405C485060504844EE00000000A5
:102D90003010101010111010101010390000000029
:102DA00000000000ACD29292929292D600000000F5
:102DB0000000000058E44444444444EE0000000095
:102DC0000000000038448282828244380000000003
:102DD00000000000D864424242645840E000000015
:102DE00000000000364C8484844C34040E00000043
:102DF000000000006C302020202020700000000027
:102E00000000000078888460188444780000000086
:102E100000202020F820202020202418000000007E
:102E200000000000C64242424242463A0000000012
:102E300000000000EE444428282810100000000084
:102E400000000000EE4444545428282800000000EC
:102E500000000000EE442810102844EE000000009E
:102E600000000000EE444428281010A0C00000001C
:102E7000000000007E448810204284FC0000000C0A
:102E80001010101010601010101010100C00001016
:102E9000101010101010101010101010100000C0A2
:102EA000202020202018202020202020C0000000EA
:102EB0000000000000728C0000000000000000D044
:102EC000C5084008200BFE1000100031FC300050F7
:102ED0000091FC1000100011FC1104110411FC11F0
:102EE00004D3AF00003FF008100FA008BC128411FB
:102EF000042294444800003FF8244824482448FF12
:102F0000FE0000B4EF004020401040104007FE00DB
:102F100040F04010A0109011081204140410002872
:102F20000047FE0000B5E70100010001003FF82165
:102F300008210821083FF82108210821083FF8212D
:102F40000A0102010200FED7D300007FF800100042
:102F500020004001800100FFFE010001000100018E
:102F6000000100010005000200D3D002000200FFB2
:102F7000FE040004000FF0081018102FF04810880D
:102F8000100FF00810081008500820CFDE00007B5A
:102F9000F84A08520853F8620852084BF84A444A63
:102FA000486A3052204210428843064200B9AB00C2
:102FB00080048004800840084010202010420882CD
:102FC0000604000440082010203FF010100000CB41
:102FD000BE00003FF8000800087FE8000800081F56
:102FE0008810881088108810881F88108800280092
:102FF00010D0C40000020001000080008004000422
:1030000008240424042402440244128410041003FB
:10301000F00000C2CA020001007FFC020044442FFD
:1030200088111022484FE400200100FFFE0100013A
:103030000001000100D1AA0100010002003FF824B4
:103040004824482448244824482448244824482420
:10305000482448FFFE0000D1F520003FFC40009FBF
:10306000F000007FF011100A107FD004103F900490
:1030700012FFEA040A04060402D6B5084008400F0D
:10308000FC1040104033F8320853F8920813F8123D
:103090000813F8120812081FFE1000D2C708800893
:1030A000480A481208120831103110511090A0102F
:1030B000A01040104010A0111012081406B2A80071
:1030C000202020102013FE822242244A200BFC12D2
:1030D000841288E24822502220245024880906D0F5
:1030E000CE00007F8412041208121012221202FF76
:1030F000C412081210122212022204220842108264
:1031000060CDBC00007FFC4204420447E44C4452C2
:1031100084410446C4783C43044084460441847F8F
:10312000FC4004C0EE010001007FFC038005400963
:10313000203118C1060FE000400080FFFE010001B1
:103140000005000200BCD1084008400BFC104010F4
:103150004030403FFE50009040104013FC104010A3
:103160004010401FFE1000000000000000000000A2
:10317000000000000000000000000000000000004F
:10318000000000000000000000000000000000003F
:1031900004FA97999999D93FAF788E1DC571CC3FA4
:1031A0009FC678D0099AC33F935555555555E53F6D
:1031B000599322942449D23FDE03CB966446C73FFD
:1031C00044523EDF12F1C23F000000000000000048
:1031D000F031000800000020C0000000C21A000802
:1031E000B0320008C000002000040000D21A00081D
:1031F0000000000000000000C80000000000000007
:1032000001000000000000000A00000000000000B3
:1032100001000000000000000000000000000000AD
:10322000000000000000000000000000000000009E
:10323000000000000000000000000000000000008E
:10324000000000000000000000000000000000007E
:10325000000000000000000000000000000000006E
:10326000000000000000000000000000000000005E
:1032700000000000000000000000000064646464BE
:10328000636363636363626262626261616161611D
:10329000616060606060605F5F5F5F5F5F5E5E5E39
:1032A0005E5E5D5D5D5D5D00000000000000000091
:04000005080000ED02
:00000001FF
